:100000000C9463000C948B000C948B000C948B006C
:100010000C948B000C948B000C948B000C948B0034
:100020000C948B000C948B000C948B000C948B0024
:100030000C948B000C948B000C948B000C948B0014
:100040000C9450050C948B000C948B000C948B003A
:100050000C948B000C948B000C948B000C948B00F4
:100060000C949A050C948B000000000023002600DD
:10007000290000000000240027002A0000000008DA
:10008000000201000003040700000000000000005F
:10009000010204081020408001020408102001021F
:1000A0000408102000000000250028002B00040494
:1000B0000404040404040202020202020303030310
:1000C0000303C806290911241FBECFEFD8E0DEBF05
:1000D000CDBF11E0A0E0B1E0E4EEF4E102C0059094
:1000E0000D92A831B107D9F721E0A8E1B1E001C034
:1000F0001D92A93FB207E1F710E0C2E6D0E004C0CC
:100100002197FE010E943909C136D107C9F70E9423
:100110003B070C94650A0C9400008F929F92AF925B
:10012000BF92CF92DF92EF92FF92CF93DF93209115
:10013000E2013091E3018217930708F057C04B01A9
:10014000AA24BB24F82DC52ED62EE72EFF24AC2DD5
:10015000E42F2091E701222361F0829E40011124C7
:10016000F92D2C9D60011124AD2D249FE001112457
:10017000ED2F3091ED01B091EA01E090E801F090AF
:10018000E9013B1308C09C01220F331F820F931F0C
:100190008E0D9F1D19C0880F991F880F991F8E0DF6
:1001A0009F1D472F552766277727EC01C30FD11DC9
:1001B000222349F030E0249F7001259FF00C349FEA
:1001C000F00C11244F2D48832091EA01EC01C20F5D
:1001D000D11DF8832091EB01EC01C20FD11DA88342
:1001E0002091EC01DC01A20FB11DEC93DF91CF91C6
:1001F000FF90EF90DF90CF90BF90AF909F908F9047
:100200000895833081F028F4813099F08230A1F094
:1002100008958730A9F08830B9F08430D1F4809106
:1002200080008F7D03C0809180008F778093800055
:10023000089584B58F7702C084B58F7D84BD0895FD
:100240008091B0008F7703C08091B0008F7D809344
:10025000B00008951F93CF93DF93282F30E0F9016A
:10026000E458FF4F8491F901E057FF4FD491F90111
:10027000E255FF4FC491CC23C1F0162F81110E948B
:100280000101EC2FF0E0EE0FFF1FEC55FF4FA591A1
:10029000B4919FB7F894111104C08C91D095D823D4
:1002A00002C0EC91DE2BDC939FBFDF91CF911F91B9
:1002B0000895CF93DF9390E0FC01E057FF4F249126
:1002C000FC01E255FF4F8491882361F190E0880F93
:1002D000991FFC01EE58FF4FC591D491FC01EC55DC
:1002E000FF4FA591B491611109C09FB7F89488811F
:1002F000209582238883EC912E230BC0623061F419
:100300009FB7F8948881322F309583238883EC91AE
:100310002E2B2C939FBF06C08FB7F894E8812E2B0D
:1003200028838FBFDF91CF9108958E3008F08E50D3
:100330008770806480937C0080917A0080648093D1
:100340007A0080917A0086FDFCCF80917800209120
:10035000790090E0922B08953FB7F8948091D001F6
:100360009091D101A091D201B091D30126B5A89B63
:1003700005C02F3F19F00196A11DB11D3FBFBA2F37
:10038000A92F982F8827820F911DA11DB11DBC0197
:10039000CD0143E0660F771F881F991F4A95D1F75B
:1003A00008950F931F93CF93DF93CDB7DEB72997AF
:1003B0000FB6F894DEBF0FBECDBF8091E8019091DB
:1003C000E901892B09F47FC10E94AC010091EE0183
:1003D0001091EF012091F0013091F101DC01CB018E
:1003E000801B910BA20BB30B8C329140A105B10580
:1003F00058F3F8948091E4019091E5019A83898300
:10040000A091E801B091E901FD0131968C918987B5
:100410008091E001A091F201B091F301882309F4E9
:1004200017C11B82AB32B10509F058C09BB1809156
:10043000F401982B98879BB1809589238F838F81B6
:100440008C83898587FF02C088858C8358856F815E
:1004500049853C812B8189819A815BB9262F3BB9E3
:1004600000C046FD252F6BB900C05BB9362F2BB9F4
:1004700000C045FD352F6BB900C05BB9262F3BB9D5
:1004800000C044FD252F6BB900C05BB9362F2BB9D6
:1004900000C043FD352F6BB900C05BB9262F3BB9B7
:1004A00000C042FD252F6BB900C05BB9362F2BB9B8
:1004B00000C041FD352F6BB900C05BB9262F3BB999
:1004C00000C040FD252F6BB901975BB9362F2BB9C2
:1004D000419147FD352F6BB901F6B6C0A532B10584
:1004E00009F058C095B18091F401982B988795B187
:1004F000809589238F838F818C83898587FF02C0B4
:1005000088858C8358856F8149853C812B818981C1
:100510009A8155B9262F35B900C046FD252F65B9FA
:1005200000C055B9362F25B900C045FD352F65B936
:1005300000C055B9262F35B900C044FD252F65B937
:1005400000C055B9362F25B900C043FD352F65B918
:1005500000C055B9262F35B900C042FD252F65B919
:1005600000C055B9362F25B900C041FD352F65B9FA
:1005700000C055B9262F35B900C040FD252F65B9FB
:10058000019755B9362F25B9419147FD352F65B9EA
:1005900001F65AC0989709F08BC098B18091F40188
:1005A000982B988798B1809589238F838F818C832E
:1005B000898587FF02C088858C8358856F8149852E
:1005C0003C812B8189819A8158B9262F38B900C086
:1005D00046FD252F68B900C058B9362F28B900C08C
:1005E00045FD352F68B900C058B9262F38B900C06D
:1005F00044FD252F68B900C058B9362F28B900C06E
:1006000043FD352F68B900C058B9262F38B900C04E
:1006100042FD252F68B900C058B9362F28B900C04F
:1006200041FD352F68B900C058B9262F38B900C030
:1006300040FD252F68B9019758B9362F28B9419147
:1006400047FD352F68B901F649873C832B832EC0BF
:100650009C918091F401982B98879C918095892397
:100660008F838F818E8388E08D8358856F81498544
:100670003D812E8189819A815C9347FD252F2C93A2
:10068000262F3A9531F0441F6C9300C000C000C083
:10069000F3CF6C93000038E04191019769F7B09374
:1006A000F301A093F20149873D832E839A838983C6
:1006B00078940E94AC016093EE017093EF018093F7
:1006C000F0019093F10129960FB6F894DEBF0FBEAA
:1006D000CDBFDF91CF911F910F9108958F929F927F
:1006E000AF92BF92CF92DF92EF92FF926B017C01AB
:1006F0000E94AC014B015C01C114D104E104F1047E
:10070000F1F00E94AC01DC01CB0188199909AA091A
:10071000BB09883E9340A105B10570F321E0C21AE0
:10072000D108E108F10888EE880E83E0981EA11C2C
:10073000B11CC114D104E104F10419F7DDCFFF901D
:10074000EF90DF90CF90BF90AF909F908F900895E3
:10075000E091AC01F091AD01309729F01092A70122
:100760001092A60109940895CF93DF93AC01E09114
:10077000AA01F091AB013097F1F09091A90180911D
:10078000A8019817C0F090E0292F30E0261737070E
:1007900054F4D901A85EBE4FEA01C20FD31F2881CD
:1007A0002C939F5FF1CF1092A9016093A801CB0118
:1007B000DF91CF910994DF91CF910895CF92DF928D
:1007C000EF92FF920F931F93CF93DF936C017A0107
:1007D0008B01C0E0D0E0CE15DF0581F0D8016D912E
:1007E0008D01D601ED91FC910190F081E02DC601C3
:1007F0000995892B11F02196EECF7E01C701DF917B
:10080000CF911F910F91FF90EF90DF90CF900895BF
:1008100085ED8093BC008091BC0084FDFCCF1092DC
:10082000A501089540915801262F30E0240F311D75
:1008300021323105DCF42091A5012430C9F4FC01FA
:1008400080E090E0861758F4309158012191DC0146
:10085000A85CBE4FA30FB11D2C930196F3CF8091DE
:100860005801680F6093580180E0089581E0089571
:1008700082E008950895E091A9018091A801E81708
:1008800030F4F0E0E85EFE4F808190E008958FEF55
:100890009FEF08959091A9018091A801981750F4B5
:1008A000E92FF0E0E85EFE4F208130E09F5F9093FB
:1008B000A90102C02FEF3FEFC90108958091A8015F
:1008C00090E02091A901821B91090895CF93DF93B5
:1008D000CB01EA01642F0E941204CE01DF91CF9177
:1008E0000895CF93DF931F92CDB7DEB7698361E0A0
:1008F000CE0101960E94120481E090E00F90DF91FA
:10090000CF910895089580E090E00895CF93DF930C
:100910006091C901C091CA0184ED91E00E94710407
:100920006C2F84ED91E00E9471046091C701C09129
:10093000C80184ED91E00E9471046C2F84ED91E078
:100940000E947104E6E8F0E08491EAE9F0E0D491D5
:10095000E8EBF0E0C491CC2379F081110E94010111
:10096000EC2FF0E0EE0FFF1FE859FF4FA591B49177
:10097000EC91ED2361E009F460E084ED91E0DF911A
:10098000CF910C947104049781F08091A80190E0BC
:100990002091A901821B9109181619060CF07DC03F
:1009A00084ED91E00E944A04F0CF84ED91E00E9432
:1009B0004A04992781309105E1F1E4F4892B09F08B
:1009C00069C084ED91E00E944A049093C101809334
:1009D000C00184ED91E00E944A049093C30180938A
:1009E000C20184ED91E00E944A049093C501809376
:1009F000C40150C082309105A9F1039709F04AC0A3
:100A000084ED91E00E944A049093AF018093AE017F
:100A100084ED91E00E944A049093B1018093B0016B
:100A200084ED91E00E944A049093B3018093B20157
:100A300031C084ED91E00E944A049093BB01809301
:100A4000BA0184ED91E00E944A049093BD01809325
:100A5000BC0184ED91E00E944A049093BF01809311
:100A6000BE0118C084ED91E00E944A049093B50144
:100A70008093B40184ED91E00E944A049093B70101
:100A80008093B60184ED91E00E944A049093B901ED
:100A90008093B80181E08093C60108950E94600AA6
:100AA0001F920F920FB60F9211242F933F938F93A3
:100AB0009F93AF93BF938091CC019091CD01A09172
:100AC000CE01B091CF013091CB0126E0230F2D371D
:100AD00020F40296A11DB11D05C029E8230F03963D
:100AE000A11DB11D2093CB018093CC019093CD012A
:100AF000A093CE01B093CF018091D0019091D1010C
:100B0000A091D201B091D3010196A11DB11D809396
:100B1000D0019093D101A093D201B093D301BF91A2
:100B2000AF919F918F913F912F910F900FBE0F909A
:100B30001F9018951F920F920FB60F9211242F93AA
:100B40003F934F935F936F937F938F939F93AF9355
:100B5000BF93EF93FF938091B900887F803609F4AB
:100B60009CC068F5883209F45BC090F4803109F4C8
:100B700054C038F4882309F4F6C0883009F44DC015
:100B8000F6C0883109F44CC0803209F45DC0EFC072
:100B9000803409F468C048F4803309F455C08833C0
:100BA00009F0E5C080937B01D8C0803509F44FC0BF
:100BB000883509F45DC0883409F0D9C0D6C08839B9
:100BC00009F4C7C0A8F4883709F467C038F4883638
:100BD00009F463C0803709F460C0C9C0883809F4DB
:100BE000B8C0803909F45FC0803809F0C0C05BC06C
:100BF000803B09F486C038F4803A09F466C0883A2C
:100C000009F47FC0B4C0803C09F4A7C0883C09F453
:100C1000A4C0883B09F48AC0AAC080919E0110C07C
:100C200090919D0180919C01981770F5E0919D0134
:100C300081E08E0F80939D01F0E0E458FE4F8081AB
:100C40008093BB0085EC86C080937B018EC0E091D1
:100C50009D0181E08E0F80939D018091BB00F0E0AB
:100C6000E458FE4F808390919D0180919C016EC05D
:100C7000E0919D0181E08E0F80939D018091BB00EA
:100C8000F0E0E458FE4F80838091A40181116DC093
:100C900081E08093A30184EA61C083E08093A50191
:100CA00010927A01CFCF80917A01803208F051C042
:100CB000E0917A0181E08E0F80937A018091BB00F0
:100CC000F0E0E65AFE4F8083BDCF85EC8093BC00F8
:100CD0001092A50180917A01803230F4E0917A017E
:100CE000F0E0E65AFE4F108260917A0170E0E091E8
:100CF0009F01F091A0018AE591E0099510927A0197
:100D000036C084E08093A5011092590110925801D9
:100D1000E091A101F091A201099580915801811102
:100D200005C081E08093580110923801E09159018B
:100D300081E08E0F80935901F0E0E85CFE4F8081E6
:100D40008093BB009091590180915801981708F445
:100D500079CF85E88093BC000AC085EC8093BC0005
:100D60001092A50104C010927B010E940804FF911B
:100D7000EF91BF91AF919F918F917F916F915F9113
:100D80004F913F912F910F900FBE0F901F9018958C
:100D90001092D7011092D60188EE93E0A0E0B0E067
:100DA0008093D8019093D901A093DA01B093DB012D
:100DB0008AE091E09093D5018093D4011092E101F3
:100DC0001092E7011092EE011092EF011092F001E3
:100DD0001092F10181E08093ED018093EA0110927D
:100DE000EB0192E09093EC018093E0018CE090E0C5
:100DF0009093E5018093E4010E943F099093E901FB
:100E00008093E801009761F02CE0FC0111922A9593
:100E1000E9F784E090E09093E3018093E20108C059
:100E20001092E5011092E4011092E3011092E201A8
:100E300088E08093E6018091E101882341F061E040
:100E400088E00E94590160E088E00E942A01E6EBF8
:100E5000F0E0E491F0E0EE0FFF1FEC55FF4F8591BD
:100E600094919093F3018093F201E8E9F0E0E4912A
:100E7000E093F4010895789484B5826084BD84B5CC
:100E8000816084BD85B5826085BD85B5816085BD85
:100E900080916E00816080936E001092810080913D
:100EA00081008260809381008091810081608093C5
:100EB0008100809180008160809380008091B100EA
:100EC00084608093B1008091B00081608093B00015
:100ED00080917A00846080937A0080917A008260A9
:100EE00080937A0080917A008E7F80937A0080913F
:100EF0007A00806880937A001092C10017B818B801
:100F0000C1E0C4B915B862E08AE00E9459011092AC
:100F1000A9011092A8011092A7011092A6011092A7
:100F2000A501C093A4011092A30161E082E10E9497
:100F30002A0161E083E10E942A018091B9008E7F3D
:100F40008093B9008091B9008D7F8093B90080E2D1
:100F50008093B80085E48093BC0088EA93E0909386
:100F6000A2018093A10184EB93E09093A001809370
:100F70009F018CEB8093BA0083EC94E09093AB01DB
:100F80008093AA0186E894E09093AD018093AC0130
:100F90008091E60187FD08C061E00E94590160E090
:100FA0008091E6010E942A0181E08093E101C12C39
:100FB000D12C7601560199248824BE2DAD2D9C2D6F
:100FC0008827882A992AAA2ABB2A8C289D28AE28F5
:100FD000BF28B501A40180E090E00E948D00B5011A
:100FE000A40181E090E00E948D00B501A40182E09F
:100FF00090E00E948D00B501A40183E090E00E9482
:101000008D000E94D10161E070E080E090E00E94DC
:101010006E038FEFC81AD80AE80AF80A84E6C816E1
:10102000D104E104F10431F6560199248824BE2D3F
:10103000AD2D9C2D8827882A992AAA2ABB2A8C287C
:101040009D28AE28BF28B501A40180E090E00E9451
:101050008D00B501A40181E090E00E948D00B501F2
:10106000A40182E090E00E948D00B501A40183E01C
:1010700090E00E948D000E94D10161E070E080E06C
:1010800090E00E946E0381E0C81AD108E108F108DF
:1010900059F6560199248824BE2DAD2D9C2D882704
:1010A000882A992AAA2ABB2A8C289D28AE28BF28DC
:1010B000B501A40180E090E00E948D00B501A4017B
:1010C00081E090E00E948D00B501A40182E090E0F3
:1010D0000E948D00B501A40183E090E00E948D0084
:1010E0000E94D10161E070E080E090E00E946E0318
:1010F0008FEFC81AD80AE80AF80A84E6C816D1049D
:10110000E104F10431F6560199248824BE2DAD2D59
:101110009C2D8827882A992AAA2ABB2A8C289D28B0
:10112000AE28BF28B501A40180E090E00E948D00A8
:10113000B501A40181E090E00E948D00B501A401F9
:1011400082E090E00E948D00B501A40183E090E070
:101150000E948D000E94D10161E070E080E090E08B
:101160000E946E0381E0C81AD108E108F10859F61F
:10117000C0E0D0E08EE00E9495019093CA01809378
:10118000C9018FE00E9495019093C8018093C70127
:101190008091C601882309F450C01092C601809145
:1011A000C0014091C20150E060E070E0762F652FF1
:1011B000542F4427682B8091C401482B80E090E095
:1011C0000E948D008091BA014091BC0150E060E026
:1011D00070E0762F652F542F4427682B8091BE0135
:1011E000482B81E090E00E948D008091B4014091F5
:1011F000B60150E060E070E0762F652F542F442751
:10120000682B8091B801482B82E090E00E948D000D
:101210008091AE014091B00150E060E070E0762F27
:10122000652F542F4427682B8091B201482B83E00F
:1012300090E00E948D000E94D10164E170E080E0A6
:1012400090E00E946E03209709F494CF0E94000062
:1012500091CF8091E8019091E901009711F00E94EF
:10126000D7098091E60187FD03C060E00C94590125
:101270000895EE0FFF1F0590F491E02D09940F9350
:101280001F93CF93DF938230910510F482E090E0BA
:10129000E091F701F091F80120E030E0A0E0B0E04B
:1012A000309719F140815181028113814817590704
:1012B000C8F08417950769F4109731F012960C93D3
:1012C000129713961C9327C00093F7011093F8010F
:1012D00022C02115310519F04217530718F49A015D
:1012E000BD01EF01DF01F801DBCF21153105F9F078
:1012F000281B390B2430310580F48A819B816115CC
:10130000710521F0FB019383828304C09093F8015F
:101310008093F701FE01329644C0FE01E20FF31FF5
:101320008193919322503109398328833AC02091C7
:10133000F5013091F601232B41F420910201309107
:1013400003013093F6012093F501209100013091C3
:1013500001012115310541F42DB73EB7409104013B
:1013600050910501241B350BE091F501F091F60138
:10137000E217F307A0F42E1B3F0B2817390778F06C
:10138000AC014E5F5F4F2417350748F04E0F5F1FCB
:101390005093F6014093F5018193919302C0E0E0F0
:1013A000F0E0CF01DF91CF911F910F910895CF937E
:1013B000DF93009709F481C0FC01329713821282F7
:1013C000A091F701B091F801109781F4208131814B
:1013D000820F931F2091F5013091F60128173907EC
:1013E00051F5F093F601E093F50167C0ED0120E0BF
:1013F00030E0CE17DF0740F44A815B819E01411542
:101400005105F1F0EA01F5CFD383C28340815181C8
:10141000840F951FC817D90759F488819981840FC3
:10142000951F0296918380838A819B819383828317
:101430002115310529F4F093F801E093F7013DC03F
:10144000E901FB83EA8349915991C40FD51FEC1739
:10145000FD0761F480819181840F951F0296E90157
:1014600099838883828193819B838A83E0E0F0E083
:1014700012968D919C911397009719F0FD01DC0154
:10148000F7CF8D919C9111979D012E5F3F4F820F59
:10149000931F2091F5013091F6012817390769F45F
:1014A000309729F41092F8011092F70102C01382CC
:1014B0001282B093F601A093F501DF91CF910895C8
:1014C00081E090E0F8940C94650A10E0C2E6D0E068
:1014D00004C0FE010E9439092196C336D107C9F71D
:0414E000F894FFCFAE
:1014E4000000F90180000000000071046604830418
:0814F4003A045E044A043B04C3
:107800000C94343C0C94513C0C94513C0C94513CE1
:107810000C94513C0C94513C0C94513C0C94513CB4
:107820000C94513C0C94513C0C94513C0C94513CA4
:107830000C94513C0C94513C0C94513C0C94513C94
:107840000C94513C0C94513C0C94513C0C94513C84
:107850000C94513C0C94513C0C94513C0C94513C74
:107860000C94513C0C94513C11241FBECFEFD8E036
:10787000DEBFCDBF11E0A0E0B1E0EAE8FFE702C063
:1078800005900D92A230B107D9F712E0A2E0B1E065
:1078900001C01D92AD30B107E1F70E942D3D0C945F
:1078A000C33F0C94003C982F95959595959595958B
:1078B000905D8F708A307CF0282F295A8091C0000B
:1078C00085FFFCCF9093C6008091C00085FFFCCF60
:1078D0002093C6000895282F205DF0CF982F809127
:1078E000C00085FFFCCF9093C6000895EF92FF92F1
:1078F0000F931F93EE24FF2487018091C00087FD22
:1079000017C00894E11CF11C011D111D81E2E8164D
:1079100081EAF80687E0080780E0180770F3E09135
:107920000401F091050109958091C00087FFE9CF1E
:107930008091C6001F910F91FF90EF9008950E94D3
:10794000763C982F8091C00085FFFCCF9093C600B5
:1079500091362CF490330CF09053892F089597555D
:10796000892F08951F930E949F3C182F0E949F3CCF
:107970001295107F810F1F9108951F93182F882350
:1079800021F00E94763C1150E1F71F9108951F935A
:10799000182F0E94763C803249F0809103018F5F5E
:1079A000809303018530C1F01F9108958091C0003C
:1079B00085FFFCCF84E18093C6008091C00085FFE5
:1079C000FCCF1093C6008091C00085FFFCCF80E102
:1079D0008093C6001F910895E0910401F091050184
:1079E00009951F9108950E94763C803241F0809164
:1079F00003018F5F80930301853081F008958091AA
:107A0000C00085FFFCCF84E18093C6008091C00058
:107A100085FFFCCF80E18093C6000895E0910401CA
:107A2000F09105010995089548EC50E08823A1F0F4
:107A30002D9A28EE33E0FA013197F1F721503040CA
:107A4000D1F72D9828EE33E0FA013197F1F7215064
:107A50003040D1F7815061F708953F924F925F9285
:107A60006F927F928F929F92AF92BF92CF92DF924E
:107A7000EF92FF920F931F93CF93DF93000082E06A
:107A80008093C00080E18093C4001092C50088E11B
:107A90008093C10086E08093C2005098589A259A3E
:107AA00081E00E94143D24E1F22E9EE1E92E85E959
:107AB000D82E0FE0C02E10E1B12EAA24A394B1E479
:107AC0009B2EA6E58A2EF2E57F2EE0E26E2E79E46B
:107AD000572E63E5462E50E5352E0E94763C8033C6
:107AE000B1F18133B9F1803409F46FC0813409F404
:107AF00076C0823409F485C0853409F488C08035A5
:107B000031F1823521F1813511F1853509F485C0D6
:107B1000863509F48DC0843609F496C0843709F49B
:107B200003C1853709F472C1863709F466C08091B4
:107B300003018F5F80930301853079F6E0910401A2
:107B4000F091050109950E94763C803351F60E9420
:107B5000F33CC3CF0E94763C803249F78091C0004D
:107B600085FFFCCFF092C6008091C00085FFFCCF5E
:107B70009092C6008091C00085FFFCCF8092C60025
:107B80008091C00085FFFCCF7092C6008091C0003C
:107B900085FFFCCF6092C6008091C00085FFFCCFBE
:107BA0005092C6008091C00085FFFCCF4092C60075
:107BB0008091C00085FFFCCF3092C6008091C0004C
:107BC00085FFFCCFB092C60088CF0E94763C8638F5
:107BD00008F4BDCF0E94763C0E94F33C7ECF0E9409
:107BE000763C803809F49CC0813809F40BC1823896
:107BF00009F430C1883909F48FC080E00E94C73C85
:107C00006CCF84E10E94BD3C0E94F33C66CF85E0CE
:107C10000E94BD3C0E94F33C60CF0E94763C809362
:107C200006010E94763C809307010E94F33C55CFE9
:107C30000E94763C803309F411C183E00E94BD3C70
:107C400080E00E94C73C49CF0E94763C80930902A5
:107C50000E94763C8093080280910C028E7F809374
:107C60000C020E94763C853409F409C18091080217
:107C700090910902892B89F000E010E00E94763C87
:107C8000F801E85FFE4F80830F5F1F4F809108026D
:107C9000909109020817190788F30E94763C8032F8
:107CA00009F045CF80910C0280FFF5C0609106017C
:107CB00070910701660F771F7093070160930601AB
:107CC000A0910802B09109021097C9F0E8E0F1E034
:107CD0009B01AD014E0F5F1FF999FECF32BD21BD53
:107CE000819180BDFA9AF99A2F5F3F4FE417F5070B
:107CF00099F76A0F7B1F70930701609306018091CB
:107D0000C00085FFFCCFF092C6008091C00085FFC7
:107D1000FCCFB092C600E1CE83E00E94C73CDDCE2E
:107D200082E00E94C73CD9CE0E94763C8093090233
:107D30000E94763C80930802809106019091070191
:107D4000880F991F90930701809306010E94763C4B
:107D5000853409F49AC080910C028E7F80930C02C6
:107D60000E94763C803209F0B8CE8091C00085FF39
:107D7000FCCFF092C600A0910802B09109021097C2
:107D8000C1F180910C02082F0170182F1695117007
:107D9000E0910601F0910701AF014F5F5F4FBA011B
:107DA00020E030E00023B1F4112339F49491809164
:107DB000C00085FFFCCF9093C6002F5F3F4FCB01E3
:107DC0000196FA012A173B0780F4BC014F5F5F4F11
:107DD000002351F3F999FECFF2BDE1BDF89A90B5B9
:107DE0008091C00085FFFCCFE6CF709307016093C0
:107DF00006018091C00085FDE5CE8091C00085FF21
:107E0000F8CFE0CE81E00E94C73C67CE0E94763C6E
:107E1000803209F08CCE8091C00085FFFCCFF092BB
:107E2000C6008091C00085FFFCCFE092C600809123
:107E3000C00085FFFCCFD092C6008091C00085FFB6
:107E4000FCCFC092C6008091C00085FFFCCFB092ED
:107E5000C60043CE80E10E94C73C3FCE0E94763CE4
:107E60000E94763C182F0E94763C112309F483C0AF
:107E7000113009F484C08FE00E94C73C2ECE80915F
:107E80000C02816080930C02F1CE80910C02816023
:107E900080930C0265CF809107018823880F880B9F
:107EA0008A2180930B028091060190910701880F2F
:107EB000991F90930701809306018091080280FF2B
:107EC00009C08091080290910902019690930902DD
:107ED00080930802F894F999FECF1127E0910601EA
:107EE000F0910701C8E0D1E0809108029091090269
:107EF000103091F40091570001700130D9F303E084
:107F000000935700E8950091570001700130D9F3B4
:107F100001E100935700E8950990199000915700EE
:107F200001700130D9F301E000935700E8951395F3
:107F3000103498F011270091570001700130D9F3E7
:107F400005E000935700E89500915700017001305B
:107F5000D9F301E100935700E8953296029709F0B2
:107F6000C7CF103011F00296E5CF11248091C000E8
:107F700085FFC5CEC8CE8EE10E94C73CAECD85E957
:0A7F80000E94C73CAACDF894FFCF81
:027F8A00800075
:040000030000780081
:00000001FF
